{
  "contractName": "ElectionFactory",
  "abi": [
    {
      "inputs": [
        {
          "internalType": "address",
          "name": "_libraryAddress",
          "type": "address"
        },
        {
          "internalType": "address",
          "name": "_voteTokenAddress",
          "type": "address"
        }
      ],
      "stateMutability": "nonpayable",
      "type": "constructor"
    },
    {
      "anonymous": false,
      "inputs": [
        {
          "indexed": false,
          "internalType": "address",
          "name": "contractAddress",
          "type": "address"
        }
      ],
      "name": "electionCreated",
      "type": "event"
    },
    {
      "anonymous": false,
      "inputs": [
        {
          "indexed": false,
          "internalType": "address",
          "name": "contractAddress",
          "type": "address"
        }
      ],
      "name": "electionDeleted",
      "type": "event"
    },
    {
      "inputs": [
        {
          "internalType": "uint256",
          "name": "",
          "type": "uint256"
        }
      ],
      "name": "electionAdresses",
      "outputs": [
        {
          "internalType": "address",
          "name": "",
          "type": "address"
        }
      ],
      "stateMutability": "view",
      "type": "function",
      "constant": true
    },
    {
      "inputs": [
        {
          "internalType": "address",
          "name": "",
          "type": "address"
        }
      ],
      "name": "elections",
      "outputs": [
        {
          "internalType": "bytes32",
          "name": "name",
          "type": "bytes32"
        },
        {
          "internalType": "uint256",
          "name": "listIndex",
          "type": "uint256"
        }
      ],
      "stateMutability": "view",
      "type": "function",
      "constant": true
    },
    {
      "inputs": [],
      "name": "libraryAddress",
      "outputs": [
        {
          "internalType": "address",
          "name": "",
          "type": "address"
        }
      ],
      "stateMutability": "view",
      "type": "function",
      "constant": true
    },
    {
      "inputs": [],
      "name": "owner",
      "outputs": [
        {
          "internalType": "address",
          "name": "",
          "type": "address"
        }
      ],
      "stateMutability": "view",
      "type": "function",
      "constant": true
    },
    {
      "inputs": [
        {
          "internalType": "address",
          "name": "_libraryAddress",
          "type": "address"
        }
      ],
      "name": "setLibraryAddress",
      "outputs": [],
      "stateMutability": "nonpayable",
      "type": "function"
    },
    {
      "inputs": [],
      "name": "getTokenAddress",
      "outputs": [
        {
          "internalType": "address",
          "name": "_tokenAddress",
          "type": "address"
        }
      ],
      "stateMutability": "view",
      "type": "function",
      "constant": true
    },
    {
      "inputs": [],
      "name": "getElectionCount",
      "outputs": [
        {
          "internalType": "uint256",
          "name": "_electionsCount",
          "type": "uint256"
        }
      ],
      "stateMutability": "view",
      "type": "function",
      "constant": true
    },
    {
      "inputs": [
        {
          "internalType": "bytes32",
          "name": "_name",
          "type": "bytes32"
        }
      ],
      "name": "createElection",
      "outputs": [],
      "stateMutability": "nonpayable",
      "type": "function"
    },
    {
      "inputs": [
        {
          "internalType": "address",
          "name": "electionAddress",
          "type": "address"
        }
      ],
      "name": "deleteElection",
      "outputs": [],
      "stateMutability": "nonpayable",
      "type": "function"
    }
  ],
  "bytecode": "0x608060405234801561001057600080fd5b5060405161124f38038061124f8339818101604052604081101561003357600080fd5b810190808051906020019092919080519060200190929190505050336000806101000a81548173ffffffffffffffffffffffffffffffffffffffff021916908373ffffffffffffffffffffffffffffffffffffffff16021790555080600260006101000a81548173ffffffffffffffffffffffffffffffffffffffff021916908373ffffffffffffffffffffffffffffffffffffffff16021790555081600160006101000a81548173ffffffffffffffffffffffffffffffffffffffff021916908373ffffffffffffffffffffffffffffffffffffffff160217905550505061112e806101216000396000f3fe608060405234801561001057600080fd5b50600436106100935760003560e01c80638da5cb5b116100665780638da5cb5b1461018d5780639aec6867146101c1578063b816f513146101ef578063ca99067a14610223578063da9c5e9d1461026757610093565b806310fe9ae814610098578063213785a0146100cc57806324ddc760146100ea5780634863ba1714610149575b600080fd5b6100a06102bf565b604051808273ffffffffffffffffffffffffffffffffffffffff16815260200191505060405180910390f35b6100d46103ad565b6040518082815260200191505060405180910390f35b61012c6004803603602081101561010057600080fd5b81019080803573ffffffffffffffffffffffffffffffffffffffff1690602001909291905050506103ba565b604051808381526020018281526020019250505060405180910390f35b61018b6004803603602081101561015f57600080fd5b81019080803573ffffffffffffffffffffffffffffffffffffffff1690602001909291905050506103de565b005b6101956104e3565b604051808273ffffffffffffffffffffffffffffffffffffffff16815260200191505060405180910390f35b6101ed600480360360208110156101d757600080fd5b8101908080359060200190929190505050610507565b005b6101f7610a70565b604051808273ffffffffffffffffffffffffffffffffffffffff16815260200191505060405180910390f35b6102656004803603602081101561023957600080fd5b81019080803573ffffffffffffffffffffffffffffffffffffffff169060200190929190505050610a96565b005b6102936004803603602081101561027d57600080fd5b810190808035906020019092919050505061102f565b604051808273ffffffffffffffffffffffffffffffffffffffff16815260200191505060405180910390f35b60008073ffffffffffffffffffffffffffffffffffffffff16600260009054906101000a900473ffffffffffffffffffffffffffffffffffffffff1673ffffffffffffffffffffffffffffffffffffffff161415610385576040517f08c379a00000000000000000000000000000000000000000000000000000000081526004018080602001828103825260198152602001807f766f7465546f6b656e206e6f7420696e697469616c697a65640000000000000081525060200191505060405180910390fd5b600260009054906101000a900473ffffffffffffffffffffffffffffffffffffffff16905090565b6000600380549050905090565b60046020528060005260406000206000915090508060000154908060010154905082565b60008054906101000a900473ffffffffffffffffffffffffffffffffffffffff1673ffffffffffffffffffffffffffffffffffffffff163273ffffffffffffffffffffffffffffffffffffffff161461049f576040517f08c379a00000000000000000000000000000000000000000000000000000000081526004018080602001828103825260178152602001807f66756e6374696f6e206f6e6c7920666f72206f776e657200000000000000000081525060200191505060405180910390fd5b80600160006101000a81548173ffffffffffffffffffffffffffffffffffffffff021916908373ffffffffffffffffffffffffffffffffffffffff16021790555050565b60008054906101000a900473ffffffffffffffffffffffffffffffffffffffff1681565b60008054906101000a900473ffffffffffffffffffffffffffffffffffffffff1673ffffffffffffffffffffffffffffffffffffffff163273ffffffffffffffffffffffffffffffffffffffff16146105c8576040517f08c379a00000000000000000000000000000000000000000000000000000000081526004018080602001828103825260178152602001807f66756e6374696f6e206f6e6c7920666f72206f776e657200000000000000000081525060200191505060405180910390fd5b600073ffffffffffffffffffffffffffffffffffffffff16600160009054906101000a900473ffffffffffffffffffffffffffffffffffffffff1673ffffffffffffffffffffffffffffffffffffffff161415610670576040517f08c379a00000000000000000000000000000000000000000000000000000000081526004018080602001828103825260238152602001806110d66023913960400191505060405180910390fd5b600061069d600160009054906101000a900473ffffffffffffffffffffffffffffffffffffffff1661106b565b90506000600460008373ffffffffffffffffffffffffffffffffffffffff1673ffffffffffffffffffffffffffffffffffffffff1681526020019081526020016000206001015414610757576040517f08c379a000000000000000000000000000000000000000000000000000000000815260040180806020018281038252601c8152602001807f696e76616c6964206e657720656c656374696f6e20616464726573730000000081525060200191505060405180910390fd5b600260009054906101000a900473ffffffffffffffffffffffffffffffffffffffff1673ffffffffffffffffffffffffffffffffffffffff1663694b98ce826040518263ffffffff1660e01b8152600401808273ffffffffffffffffffffffffffffffffffffffff168152602001915050600060405180830381600087803b1580156107e257600080fd5b505af11580156107f6573d6000803e3d6000fd5b505050506000600260009054906101000a900473ffffffffffffffffffffffffffffffffffffffff1673ffffffffffffffffffffffffffffffffffffffff166399f826a5836040518263ffffffff1660e01b8152600401808273ffffffffffffffffffffffffffffffffffffffff16815260200191505060206040518083038186803b15801561088557600080fd5b505afa158015610899573d6000803e3d6000fd5b505050506040513d60208110156108af57600080fd5b810190808051906020019092919050505090508173ffffffffffffffffffffffffffffffffffffffff1663cd6dc68733836040518363ffffffff1660e01b8152600401808373ffffffffffffffffffffffffffffffffffffffff16815260200182815260200192505050600060405180830381600087803b15801561093357600080fd5b505af1158015610947573d6000803e3d6000fd5b505050506003829080600181540180825580915050600190039060005260206000200160009091909190916101000a81548173ffffffffffffffffffffffffffffffffffffffff021916908373ffffffffffffffffffffffffffffffffffffffff1602179055506040518060400160405280848152602001600380549050815250600460008473ffffffffffffffffffffffffffffffffffffffff1673ffffffffffffffffffffffffffffffffffffffff16815260200190815260200160002060008201518160000155602082015181600101559050507fe9b71bf7b5d1081a430668b09908d2cf4ff6a2abec613a9d70d9829bcf40ccfc82604051808273ffffffffffffffffffffffffffffffffffffffff16815260200191505060405180910390a1505050565b600160009054906101000a900473ffffffffffffffffffffffffffffffffffffffff1681565b60008054906101000a900473ffffffffffffffffffffffffffffffffffffffff1673ffffffffffffffffffffffffffffffffffffffff163273ffffffffffffffffffffffffffffffffffffffff1614610b57576040517f08c379a00000000000000000000000000000000000000000000000000000000081526004018080602001828103825260178152602001807f66756e6374696f6e206f6e6c7920666f72206f776e657200000000000000000081525060200191505060405180910390fd5b6000600460008373ffffffffffffffffffffffffffffffffffffffff1673ffffffffffffffffffffffffffffffffffffffff168152602001908152602001600020600101541415610c10576040517f08c379a00000000000000000000000000000000000000000000000000000000081526004018080602001828103825260108152602001807f696e76616c696420656c656374696f6e0000000000000000000000000000000081525060200191505060405180910390fd5b60016002811115610c1d57fe5b8173ffffffffffffffffffffffffffffffffffffffff16630c3f6acf6040518163ffffffff1660e01b815260040160206040518083038186803b158015610c6357600080fd5b505afa158015610c77573d6000803e3d6000fd5b505050506040513d6020811015610c8d57600080fd5b81019080805190602001909291905050506002811115610ca957fe5b1415610d1d576040517f08c379a00000000000000000000000000000000000000000000000000000000081526004018080602001828103825260178152602001807f656c656374696f6e2063757272656e746c79206f70656e00000000000000000081525060200191505060405180910390fd5b60006001600460008473ffffffffffffffffffffffffffffffffffffffff1673ffffffffffffffffffffffffffffffffffffffff168152602001908152602001600020600101540390506000600360016003805490500381548110610d7e57fe5b9060005260206000200160009054906101000a900473ffffffffffffffffffffffffffffffffffffffff1690508060038381548110610db957fe5b9060005260206000200160006101000a81548173ffffffffffffffffffffffffffffffffffffffff021916908373ffffffffffffffffffffffffffffffffffffffff16021790555081600460008373ffffffffffffffffffffffffffffffffffffffff1673ffffffffffffffffffffffffffffffffffffffff16815260200190815260200160002060010181905550600460008473ffffffffffffffffffffffffffffffffffffffff1673ffffffffffffffffffffffffffffffffffffffff168152602001908152602001600020600080820160009055600182016000905550506003805480610ea557fe5b6001900381819060005260206000200160006101000a81549073ffffffffffffffffffffffffffffffffffffffff021916905590558273ffffffffffffffffffffffffffffffffffffffff166383197ef06040518163ffffffff1660e01b8152600401600060405180830381600087803b158015610f2257600080fd5b505af1158015610f36573d6000803e3d6000fd5b50505050600260009054906101000a900473ffffffffffffffffffffffffffffffffffffffff1673ffffffffffffffffffffffffffffffffffffffff1663117e26ca846040518263ffffffff1660e01b8152600401808273ffffffffffffffffffffffffffffffffffffffff168152602001915050600060405180830381600087803b158015610fc557600080fd5b505af1158015610fd9573d6000803e3d6000fd5b505050507f3dccbc7b36ebb45364adb0cdff4d5a97f1be5f5937c2e68ebc022c937ba3cc2583604051808273ffffffffffffffffffffffffffffffffffffffff16815260200191505060405180910390a1505050565b6003818154811061103c57fe5b906000526020600020016000915054906101000a900473ffffffffffffffffffffffffffffffffffffffff1681565b6000808260601b90506040517f3d602d80600a3d3981f3363d3d373d3d3d363d7300000000000000000000000081528160148201527f5af43d82803e903d91602b57fd5bf3000000000000000000000000000000000060288201526037816000f09250505091905056fe496d706c656d656e746174696f6e20636f6e7472616374206e6f7420646566696e6564a2646970667358221220763360429f1102ebc7bfa9606bb3f224c7b39d9afdf068f42ace1f359909f53a64736f6c634300060c0033",
  "immutableReferences": {},
  "source": "// SPDX-License-Identifier: MIT\r\npragma solidity >=0.4.25 <0.7.0;\r\n\r\nimport \"./Election.sol\";\r\nimport \"./VoteToken.sol\";\r\nimport \"./utilities/Ownable.sol\";\r\nimport \"./utilities/CloneFactory.sol\";\r\n\r\n/*\r\n * @title administration of the multiple election contracts\r\n * @dev Every election has an unique contract, which delegates the calls to the\r\n *      implemantation contract as a proxy.\r\n */\r\ncontract ElectionFactory is CloneFactory, Ownable {\r\n    //structure definition of an election\r\n    struct ElectionContract {\r\n        bytes32 name;\r\n        uint256 listIndex;\r\n    }\r\n\r\n    //these state variable defines the library instance of an election contract\r\n    address public libraryAddress;\r\n\r\n    //contract of the voteToken\r\n    VoteToken private voteToken;\r\n\r\n    //storage of all current elections\r\n    address[] public electionAdresses;\r\n    mapping(address => ElectionContract) public elections;\r\n\r\n    //event triggered by every new election clone\r\n    event electionCreated(address contractAddress);\r\n\r\n    //event triggered by every deleted election\r\n    event electionDeleted(address contractAddress);\r\n\r\n    //constructor to set the library of the election contract\r\n    constructor(address _libraryAddress, address _voteTokenAddress) public {\r\n        voteToken = VoteToken(_voteTokenAddress);\r\n        libraryAddress = _libraryAddress;\r\n    }\r\n\r\n    /*\r\n    * @title set the libraryAddress for delegate calls of the proxys\r\n    * Requirements: only for the owner\r\n    */\r\n    function setLibraryAddress(address _libraryAddress) public onlyOwner {\r\n        libraryAddress = _libraryAddress;\r\n    }\r\n\r\n    /*\r\n    * @title get the current address of the associated token\r\n    * Requirements: voteToken has to be initialized\r\n    */\r\n    function getTokenAddress() public view returns(address _tokenAddress) {\r\n      require(voteToken != VoteToken(0), \"voteToken not initialized\");\r\n      _tokenAddress = address(voteToken);\r\n    }\r\n\r\n    /*\r\n    * @title get the current number of elections\r\n    * @dev it should be used to iterate over the current elections\r\n    */\r\n    function getElectionCount() public view returns (uint256 _electionsCount) {\r\n        _electionsCount = electionAdresses.length;\r\n    }\r\n\r\n    /*\r\n    * @title create a new proxy clone of the elecion with his own state\r\n    * @dev\r\n    * -> it caused lower gas cas costs instead of a new deployment of the\r\n    *    whole implementation contract\r\n    * -> the election will also be added to the token contract\r\n    * -> emits a {electionCreated} event after successfull deployment\r\n    * Requirements:\r\n    * -> only for the owner\r\n    * -> implementation contract has to be defined\r\n    */\r\n    function createElection(bytes32 _name) public onlyOwner {\r\n        require(\r\n            libraryAddress != address(0),\r\n            \"Implementation contract not defined\"\r\n        );\r\n        address cloneAddress = createClone(libraryAddress);\r\n        require(\r\n            elections[cloneAddress].listIndex == 0,\r\n            \"invalid new election address\"\r\n        );\r\n        voteToken.addElection(cloneAddress);\r\n        uint256 tokenID = voteToken.getID(cloneAddress);\r\n        Election(cloneAddress).initialize(msg.sender, tokenID);\r\n        electionAdresses.push(cloneAddress);\r\n        elections[cloneAddress] = ElectionContract(\r\n            _name,\r\n            electionAdresses.length\r\n        );\r\n        emit electionCreated(cloneAddress);\r\n    }\r\n\r\n    /*\r\n    * @title delete an existing election\r\n    * @dev\r\n    * -> the last item will be moved to the deleted position to prvent a gap\r\n    * -> the cloned election proxy will be destroyed to disable it and free the\r\n    *    contract balance\r\n    * -> the election will also be removed from the token contract\r\n    * -> emits a {electionDeleted} event after successfull removement\r\n    * Requirements:\r\n    * -> only for the owner\r\n    * -> contract at the passed address is an valid election\r\n    * -> state of the election is open\r\n    */\r\n    function deleteElection(address electionAddress) public onlyOwner {\r\n      require(\r\n        elections[electionAddress].listIndex != 0,\r\n        \"invalid election\"\r\n      );\r\n      require(\r\n        Election(electionAddress).currentState() != Election.ElectionState.Open,\r\n        \"election currently open\"\r\n      );\r\n      uint256 rowToDelete =  elections[electionAddress].listIndex - 1;\r\n      address keyToMove = electionAdresses[electionAdresses.length - 1];\r\n      electionAdresses[rowToDelete] = keyToMove;\r\n      elections[keyToMove].listIndex = rowToDelete;\r\n      delete(elections[electionAddress]);\r\n      electionAdresses.pop();\r\n      Election(electionAddress).destroy();\r\n      voteToken.delElection(electionAddress);\r\n      emit electionDeleted(electionAddress);\r\n    }\r\n}\r\n",
  "sourcePath": "D:/Studium/WS_2021/Blockchain/votingdapp/contracts/ElectionFactory.sol",
  "compiler": {
    "name": "solc",
    "version": "0.6.12+commit.27d51765.Emscripten.clang"
  },
  "schemaVersion": "3.3.2",
  "updatedAt": "2021-01-24T18:16:49.766Z",
  "networkType": "ethereum",
  "devdoc": {
    "kind": "dev",
    "methods": {},
    "version": 1
  },
  "userdoc": {
    "kind": "user",
    "methods": {},
    "version": 1
  }
}