{
  "contractName": "Election",
  "abi": [
    {
      "anonymous": false,
      "inputs": [
        {
          "indexed": false,
          "internalType": "bytes32",
          "name": "candidateName",
          "type": "bytes32"
        }
      ],
      "name": "candidateAdded",
      "type": "event"
    },
    {
      "anonymous": false,
      "inputs": [
        {
          "indexed": false,
          "internalType": "enum Election.ElectionState",
          "name": "newState",
          "type": "uint8"
        }
      ],
      "name": "stateChanged",
      "type": "event"
    },
    {
      "anonymous": false,
      "inputs": [
        {
          "indexed": false,
          "internalType": "bytes32",
          "name": "candidateName",
          "type": "bytes32"
        }
      ],
      "name": "voteAdded",
      "type": "event"
    },
    {
      "inputs": [
        {
          "internalType": "uint256",
          "name": "",
          "type": "uint256"
        }
      ],
      "name": "candidateNames",
      "outputs": [
        {
          "internalType": "bytes32",
          "name": "",
          "type": "bytes32"
        }
      ],
      "stateMutability": "view",
      "type": "function",
      "constant": true
    },
    {
      "inputs": [
        {
          "internalType": "bytes32",
          "name": "",
          "type": "bytes32"
        }
      ],
      "name": "candidates",
      "outputs": [
        {
          "internalType": "uint256",
          "name": "voteCount",
          "type": "uint256"
        },
        {
          "internalType": "uint256",
          "name": "listIndex",
          "type": "uint256"
        }
      ],
      "stateMutability": "view",
      "type": "function",
      "constant": true
    },
    {
      "inputs": [],
      "name": "currentState",
      "outputs": [
        {
          "internalType": "enum Election.ElectionState",
          "name": "",
          "type": "uint8"
        }
      ],
      "stateMutability": "view",
      "type": "function",
      "constant": true
    },
    {
      "inputs": [],
      "name": "owner",
      "outputs": [
        {
          "internalType": "address",
          "name": "",
          "type": "address"
        }
      ],
      "stateMutability": "view",
      "type": "function",
      "constant": true
    },
    {
      "inputs": [
        {
          "internalType": "bytes4",
          "name": "interfaceId",
          "type": "bytes4"
        }
      ],
      "name": "supportsInterface",
      "outputs": [
        {
          "internalType": "bool",
          "name": "",
          "type": "bool"
        }
      ],
      "stateMutability": "view",
      "type": "function",
      "constant": true
    },
    {
      "inputs": [],
      "name": "tokenID",
      "outputs": [
        {
          "internalType": "uint256",
          "name": "",
          "type": "uint256"
        }
      ],
      "stateMutability": "view",
      "type": "function",
      "constant": true
    },
    {
      "inputs": [
        {
          "internalType": "address",
          "name": "_owner",
          "type": "address"
        }
      ],
      "name": "initialize",
      "outputs": [],
      "stateMutability": "nonpayable",
      "type": "function"
    },
    {
      "inputs": [
        {
          "internalType": "address",
          "name": "_owner",
          "type": "address"
        },
        {
          "internalType": "uint256",
          "name": "_tokenID",
          "type": "uint256"
        }
      ],
      "name": "initialize",
      "outputs": [],
      "stateMutability": "nonpayable",
      "type": "function"
    },
    {
      "inputs": [],
      "name": "getCandidateCount",
      "outputs": [
        {
          "internalType": "uint256",
          "name": "_candidateCount",
          "type": "uint256"
        }
      ],
      "stateMutability": "view",
      "type": "function",
      "constant": true
    },
    {
      "inputs": [
        {
          "internalType": "bytes32",
          "name": "_name",
          "type": "bytes32"
        }
      ],
      "name": "addCandidate",
      "outputs": [],
      "stateMutability": "nonpayable",
      "type": "function"
    },
    {
      "inputs": [],
      "name": "startElection",
      "outputs": [],
      "stateMutability": "nonpayable",
      "type": "function"
    },
    {
      "inputs": [],
      "name": "stopElection",
      "outputs": [],
      "stateMutability": "nonpayable",
      "type": "function"
    },
    {
      "inputs": [
        {
          "internalType": "address",
          "name": "",
          "type": "address"
        },
        {
          "internalType": "address",
          "name": "",
          "type": "address"
        },
        {
          "internalType": "uint256",
          "name": "id",
          "type": "uint256"
        },
        {
          "internalType": "uint256",
          "name": "value",
          "type": "uint256"
        },
        {
          "internalType": "bytes",
          "name": "data",
          "type": "bytes"
        }
      ],
      "name": "onERC1155Received",
      "outputs": [
        {
          "internalType": "bytes4",
          "name": "",
          "type": "bytes4"
        }
      ],
      "stateMutability": "nonpayable",
      "type": "function"
    },
    {
      "inputs": [
        {
          "internalType": "address",
          "name": "",
          "type": "address"
        },
        {
          "internalType": "address",
          "name": "",
          "type": "address"
        },
        {
          "internalType": "uint256[]",
          "name": "",
          "type": "uint256[]"
        },
        {
          "internalType": "uint256[]",
          "name": "",
          "type": "uint256[]"
        },
        {
          "internalType": "bytes",
          "name": "",
          "type": "bytes"
        }
      ],
      "name": "onERC1155BatchReceived",
      "outputs": [
        {
          "internalType": "bytes4",
          "name": "",
          "type": "bytes4"
        }
      ],
      "stateMutability": "nonpayable",
      "type": "function"
    },
    {
      "inputs": [],
      "name": "destroy",
      "outputs": [],
      "stateMutability": "nonpayable",
      "type": "function"
    }
  ],
  "bytecode": "0x608060405234801561001057600080fd5b50336000806101000a81548173ffffffffffffffffffffffffffffffffffffffff021916908373ffffffffffffffffffffffffffffffffffffffff1602179055506100676301ffc9a760e01b61008b60201b60201c565b61008663bc197c8160e01b63f23a6e6160e01b1861008b60201b60201c565b610193565b63ffffffff60e01b817bffffffffffffffffffffffffffffffffffffffffffffffffffffffff19161415610127576040517f08c379a000000000000000000000000000000000000000000000000000000000815260040180806020018281038252601c8152602001807f4552433136353a20696e76616c696420696e746572666163652069640000000081525060200191505060405180910390fd5b6001806000837bffffffffffffffffffffffffffffffffffffffffffffffffffffffff19167bffffffffffffffffffffffffffffffffffffffffffffffffffffffff1916815260200190815260200160002060006101000a81548160ff02191690831515021790555050565b61144e806101a26000396000f3fe608060405234801561001057600080fd5b50600436106100f55760003560e01c80638287e42f11610097578063bc197c8111610066578063bc197c81146102cd578063c4d66de814610463578063cd6dc687146104a7578063f23a6e61146104f5576100f5565b80638287e42f1461022f57806383197ef0146102715780638da5cb5b1461027b578063a5c42ef1146102af576100f5565b8063230d6ed8116100d3578063230d6ed8146101cf5780632df9feaa146101fd57806330a563471461020757806362d73eb814610225576100f5565b806301ffc9a7146100fa5780630c3f6acf1461015d5780631a0478d514610186575b600080fd5b6101456004803603602081101561011057600080fd5b8101908080357bffffffffffffffffffffffffffffffffffffffffffffffffffffffff191690602001909291905050506105f5565b60405180821515815260200191505060405180910390f35b61016561065d565b6040518082600281111561017557fe5b815260200191505060405180910390f35b6101b26004803603602081101561019c57600080fd5b8101908080359060200190929190505050610670565b604051808381526020018281526020019250505060405180910390f35b6101fb600480360360208110156101e557600080fd5b8101908080359060200190929190505050610694565b005b6102056108ff565b005b61020f610ad1565b6040518082815260200191505060405180910390f35b61022d610ade565b005b61025b6004803603602081101561024557600080fd5b8101908080359060200190929190505050610d2c565b6040518082815260200191505060405180910390f35b610279610d4d565b005b610283610e27565b604051808273ffffffffffffffffffffffffffffffffffffffff16815260200191505060405180910390f35b6102b7610e4b565b6040518082815260200191505060405180910390f35b61042e600480360360a08110156102e357600080fd5b81019080803573ffffffffffffffffffffffffffffffffffffffff169060200190929190803573ffffffffffffffffffffffffffffffffffffffff1690602001909291908035906020019064010000000081111561034057600080fd5b82018360208201111561035257600080fd5b8035906020019184602083028401116401000000008311171561037457600080fd5b90919293919293908035906020019064010000000081111561039557600080fd5b8201836020820111156103a757600080fd5b803590602001918460208302840111640100000000831117156103c957600080fd5b9091929391929390803590602001906401000000008111156103ea57600080fd5b8201836020820111156103fc57600080fd5b8035906020019184600183028401116401000000008311171561041e57600080fd5b9091929391929390505050610e51565b60405180827bffffffffffffffffffffffffffffffffffffffffffffffffffffffff1916815260200191505060405180910390f35b6104a56004803603602081101561047957600080fd5b81019080803573ffffffffffffffffffffffffffffffffffffffff169060200190929190505050610ea4565b005b6104f3600480360360408110156104bd57600080fd5b81019080803573ffffffffffffffffffffffffffffffffffffffff16906020019092919080359060200190929190505050610fe6565b005b6105c0600480360360a081101561050b57600080fd5b81019080803573ffffffffffffffffffffffffffffffffffffffff169060200190929190803573ffffffffffffffffffffffffffffffffffffffff16906020019092919080359060200190929190803590602001909291908035906020019064010000000081111561057c57600080fd5b82018360208201111561058e57600080fd5b803590602001918460018302840111640100000000831117156105b057600080fd5b90919293919293905050506110f9565b60405180827bffffffffffffffffffffffffffffffffffffffffffffffffffffffff1916815260200191505060405180910390f35b600060016000837bffffffffffffffffffffffffffffffffffffffffffffffffffffffff19167bffffffffffffffffffffffffffffffffffffffffffffffffffffffff1916815260200190815260200160002060009054906101000a900460ff169050919050565b600260009054906101000a900460ff1681565b60046020528060005260406000206000915090508060000154908060010154905082565b60008054906101000a900473ffffffffffffffffffffffffffffffffffffffff1673ffffffffffffffffffffffffffffffffffffffff163273ffffffffffffffffffffffffffffffffffffffff1614610755576040517f08c379a00000000000000000000000000000000000000000000000000000000081526004018080602001828103825260178152602001807f66756e6374696f6e206f6e6c7920666f72206f776e657200000000000000000081525060200191505060405180910390fd5b6000600281111561076257fe5b600260009054906101000a900460ff16600281111561077d57fe5b146107f0576040517f08c379a00000000000000000000000000000000000000000000000000000000081526004018080602001828103825260198152602001807f656c656374696f6e20616c72656164792072656c65617365640000000000000081525060200191505060405180910390fd5b600060046000838152602001908152602001600020600101541461087c576040517f08c379a00000000000000000000000000000000000000000000000000000000081526004018080602001828103825260188152602001807f63616e64696461746520616c726561647920657869737473000000000000000081525060200191505060405180910390fd5b600381908060018154018082558091505060019003906000526020600020016000909190919091505560038054905060046000838152602001908152602001600020600101819055507f2c533d92d910bf823d138d9d100a769c1e6ce57b58a9eb9d05867138b3c73e7b816040518082815260200191505060405180910390a150565b60008054906101000a900473ffffffffffffffffffffffffffffffffffffffff1673ffffffffffffffffffffffffffffffffffffffff163273ffffffffffffffffffffffffffffffffffffffff16146109c0576040517f08c379a00000000000000000000000000000000000000000000000000000000081526004018080602001828103825260178152602001807f66756e6374696f6e206f6e6c7920666f72206f776e657200000000000000000081525060200191505060405180910390fd5b600160028111156109cd57fe5b600260009054906101000a900460ff1660028111156109e857fe5b14610a5b576040517f08c379a00000000000000000000000000000000000000000000000000000000081526004018080602001828103825260118152602001807f656c656374696f6e206e6f74206f70656e00000000000000000000000000000081525060200191505060405180910390fd5b60028060006101000a81548160ff02191690836002811115610a7957fe5b02179055507f60a4a1bc10ae890f497872511943e85041b8c9f7f80b041024eb3b0b6b129378600260009054906101000a900460ff1660405180826002811115610abf57fe5b815260200191505060405180910390a1565b6000600380549050905090565b60008054906101000a900473ffffffffffffffffffffffffffffffffffffffff1673ffffffffffffffffffffffffffffffffffffffff163273ffffffffffffffffffffffffffffffffffffffff1614610b9f576040517f08c379a00000000000000000000000000000000000000000000000000000000081526004018080602001828103825260178152602001807f66756e6374696f6e206f6e6c7920666f72206f776e657200000000000000000081525060200191505060405180910390fd5b60006002811115610bac57fe5b600260009054906101000a900460ff166002811115610bc757fe5b14610c3a576040517f08c379a00000000000000000000000000000000000000000000000000000000081526004018080602001828103825260198152602001807f656c656374696f6e20616c72656164792072656c65617365640000000000000081525060200191505060405180910390fd5b600060038054905011610cb5576040517f08c379a000000000000000000000000000000000000000000000000000000000815260040180806020018281038252601f8152602001807f6e6f2063616e6469646174657320617661696c61626c6520746f20766f74650081525060200191505060405180910390fd5b6001600260006101000a81548160ff02191690836002811115610cd457fe5b02179055507f60a4a1bc10ae890f497872511943e85041b8c9f7f80b041024eb3b0b6b129378600260009054906101000a900460ff1660405180826002811115610d1a57fe5b815260200191505060405180910390a1565b60038181548110610d3957fe5b906000526020600020016000915090505481565b60008054906101000a900473ffffffffffffffffffffffffffffffffffffffff1673ffffffffffffffffffffffffffffffffffffffff163273ffffffffffffffffffffffffffffffffffffffff1614610e0e576040517f08c379a00000000000000000000000000000000000000000000000000000000081526004018080602001828103825260178152602001807f66756e6374696f6e206f6e6c7920666f72206f776e657200000000000000000081525060200191505060405180910390fd5b3373ffffffffffffffffffffffffffffffffffffffff16ff5b60008054906101000a900473ffffffffffffffffffffffffffffffffffffffff1681565b60055481565b60006040517f08c379a00000000000000000000000000000000000000000000000000000000081526004018080602001828103825260378152602001806113b46037913960400191505060405180910390fd5b600060159054906101000a900460ff1680610ec35750610ec2611316565b5b80610edb5750600060149054906101000a900460ff16155b610f30576040517f08c379a000000000000000000000000000000000000000000000000000000000815260040180806020018281038252602e8152602001806113eb602e913960400191505060405180910390fd5b60008060159054906101000a900460ff161590508015610f81576001600060156101000a81548160ff0219169083151502179055506001600060146101000a81548160ff0219169083151502179055505b816000806101000a81548173ffffffffffffffffffffffffffffffffffffffff021916908373ffffffffffffffffffffffffffffffffffffffff1602179055508015610fe25760008060156101000a81548160ff0219169083151502179055505b5050565b600060159054906101000a900460ff16806110055750611004611316565b5b8061101d5750600060149054906101000a900460ff16155b611072576040517f08c379a000000000000000000000000000000000000000000000000000000000815260040180806020018281038252602e8152602001806113eb602e913960400191505060405180910390fd5b60008060159054906101000a900460ff1615905080156110c3576001600060156101000a81548160ff0219169083151502179055506001600060146101000a81548160ff0219169083151502179055505b816005819055506110d383610ea4565b80156110f45760008060156101000a81548160ff0219169083151502179055505b505050565b60006001600281111561110857fe5b600260009054906101000a900460ff16600281111561112357fe5b14611196576040517f08c379a00000000000000000000000000000000000000000000000000000000081526004018080602001828103825260198152602001807f656c656374696f6e2063757272656e746c79206c6f636b65640000000000000081525060200191505060405180910390fd5b84600554146111f0576040517f08c379a00000000000000000000000000000000000000000000000000000000081526004018080602001828103825260238152602001806113916023913960400191505060405180910390fd5b60006111fe8484600061132d565b905060006004600083815260200190815260200160002060010154141561128d576040517f08c379a000000000000000000000000000000000000000000000000000000000815260040180806020018281038252601a8152602001807f73656c656374656420696e76616c69642063616e64696461746500000000000081525060200191505060405180910390fd5b8460046000838152602001908152602001600020600001600082825401925050819055507f42882f24fc921aee9fca509bcae0527b4aa5a86632fb122411c69a4805677d0a816040518082815260200191505060405180910390a17ff23a6e612e1ff4830e658fe43f4e3cb4a5f8170bd5d9e69fb5d7a7fa9e4fdf979150509695505050505050565b6000803090506000813b9050600081149250505090565b60008060008390505b602084018110156113815761010082029150858590508110156113745785858281811061135f57fe5b9050013560f81c60f81b60f81c60ff16821791505b8080600101915050611336565b508060001b915050939250505056fe746f6b656e206e6f7420616c6c6f77656420666f72207468697320656c656374696f6e6f6e45524331313535426174636852656365697665643a206e6f20737570706f727420666f72206d756c7469706c6520746f6b656e7320496e697469616c697a61626c653a20636f6e747261637420697320616c726561647920696e697469616c697a6564a26469706673582212200da5d88eab5e548a95f05ee68c96d3c94b12022296e5b3741d3f4533fe66850364736f6c634300060c0033",
  "immutableReferences": {},
  "source": "// SPDX-License-Identifier: MIT\r\npragma solidity >=0.4.25 <0.7.0;\r\n\r\nimport \"./utilities/Bytes.sol\";\r\nimport \"./utilities/InitializeOwnable.sol\";\r\nimport \"@openzeppelin/contracts/math/SafeMath.sol\";\r\nimport \"@openzeppelin/contracts/token/ERC1155/ERC1155Receiver.sol\";\r\n\r\n/*\r\n* @title implementation contract for an election\r\n*/\r\ncontract Election is InitializeOwnable, ERC1155Receiver {\r\n    //using boundary checks for uint256 operations\r\n    using SafeMath for uint256;\r\n\r\n    //structure definition of a candidate from the election\r\n    struct Candidate {\r\n        uint256 voteCount;\r\n        uint256 listIndex;\r\n    }\r\n\r\n    //constant for an successfull receive of the voteToken\r\n    bytes4 constant private ERC1155_RECEIVED = bytes4(keccak256(\r\n      \"onERC1155Received(address,address,uint256,uint256,bytes)\"\r\n    ));\r\n\r\n    //current status of the elections\r\n    //availability of the individual operations depends on this status\r\n    enum ElectionState { Created, Open, Closed }\r\n    ElectionState public currentState;\r\n\r\n    //storage of all available candidates\r\n    bytes32[] public candidateNames;\r\n    mapping(bytes32 => Candidate) public candidates;\r\n\r\n    //id of the associated voteToken\r\n    uint256 public tokenID;\r\n\r\n    //event triggered by a new candidate\r\n    event candidateAdded(bytes32 candidateName);\r\n\r\n    //event triggered by a new vote\r\n    event voteAdded(bytes32 candidateName);\r\n\r\n    //event triggered by state change\r\n    event stateChanged(ElectionState newState);\r\n\r\n    /*\r\n    * @title initialization for the proxy contract to set the tokenID\r\n    * @dev openZeppelin ensures that the function can only be called once\r\n    */\r\n    function initialize(address _owner, uint256 _tokenID) public initializer {\r\n        tokenID = _tokenID;\r\n        super.initialize(_owner);\r\n    }\r\n\r\n    /*\r\n    * @title get the current number of candidates\r\n    * @dev it should be used to iterate overthe current candidates\r\n    */\r\n    function getCandidateCount() public view returns (uint256 _candidateCount) {\r\n        _candidateCount = candidateNames.length;\r\n    }\r\n\r\n    /*\r\n    * @title add a new candidate\r\n    * @dev\r\n    * -> the new candidate will be added at the end of the array\r\n    * -> emits a {candidateAdded} event after successfull insert\r\n    * Requirements:\r\n    * -> only for the owner\r\n    * -> state of the election is created\r\n    * -> candidate is new\r\n    */\r\n    function addCandidate(bytes32 _name) public onlyOwner {\r\n        require(\r\n            currentState == ElectionState.Created,\r\n            \"election already released\"\r\n        );\r\n        require(candidates[_name].listIndex == 0, \"candidate already exists\");\r\n        candidateNames.push(_name);\r\n        candidates[_name].listIndex = candidateNames.length;\r\n        emit candidateAdded(_name);\r\n    }\r\n\r\n    /*\r\n    * @title start the defined elections\r\n    * @dev\r\n    * -> afterwards its not possible to add new candidates\r\n    * -> emits a {stateChanged} event after successfull start\r\n    * Requirements:\r\n    * -> only for the owner\r\n    * -> state of the election is created\r\n    * -> there are available candidates to vote\r\n    */\r\n    function startElection() public onlyOwner {\r\n        require(\r\n            currentState == ElectionState.Created,\r\n            \"election already released\"\r\n        );\r\n        require(candidateNames.length > 0, \"no candidates available to vote\");\r\n        currentState = ElectionState.Open;\r\n        emit stateChanged(currentState);\r\n    }\r\n\r\n    /*\r\n    * @title stop the open election\r\n    * @dev\r\n    * -> afterwards its not possible to vote for an candidate\r\n    * -> emits a {stateChanged} event after successfull start\r\n    * Requirements:\r\n    * -> only for the owner\r\n    * -> state of the election is open\r\n    */\r\n    function stopElection() public onlyOwner {\r\n        require(currentState == ElectionState.Open, \"election not open\");\r\n        currentState = ElectionState.Closed;\r\n        emit stateChanged(currentState);\r\n    }\r\n\r\n    /*\r\n    * @title receiver of an ERC1155 token for a vote of this election\r\n    * Requirements:\r\n    * -> the token has the id of this election\r\n    * -> state of the election is open\r\n    */\r\n    function onERC1155Received(\r\n        address,\r\n        address,\r\n        uint256 id,\r\n        uint256 value,\r\n        bytes calldata data\r\n    ) external override returns (bytes4) {\r\n        require(\r\n            currentState == ElectionState.Open,\r\n            \"election currently locked\"\r\n        );\r\n        require(tokenID == id, \"token not allowed for this election\");\r\n        bytes32 candidateName = Bytes.toBytes32(data, 0);\r\n        require(\r\n            candidates[candidateName].listIndex != 0,\r\n            \"selected invalid candidate\"\r\n        );\r\n        candidates[candidateName].voteCount += value;\r\n        emit voteAdded(candidateName);\r\n        return ERC1155_RECEIVED;\r\n    }\r\n\r\n    /*\r\n    * @title receiver of multiple token\r\n    * @dev\r\n    * -> multpile tokens are not supported int his contract, because every contract\r\n    *    represents one tokenID\r\n    */\r\n    function onERC1155BatchReceived(\r\n        address,\r\n        address,\r\n        uint256[] calldata,\r\n        uint256[] calldata,\r\n        bytes calldata\r\n    ) external override returns (bytes4) {\r\n        revert(\"onERC1155BatchReceived: no support for multiple tokens \");\r\n    }\r\n\r\n    /*\r\n    * @title destructor of this contract\r\n    * @dev\r\n    * -> afterwards this election isn't accessicle anymore\r\n    * -> the contract will be transfer to msg.sender\r\n    * Requirements:\r\n    * -> only for the owner\r\n    */\r\n    function destroy() public onlyOwner {\r\n        selfdestruct(msg.sender);\r\n    }\r\n}\r\n",
  "sourcePath": "D:\\Studium\\WS_2021\\Blockchain\\votingdapp\\contracts\\Election.sol",
  "compiler": {
    "name": "solc",
    "version": "0.6.12+commit.27d51765.Emscripten.clang"
  },
  "schemaVersion": "3.3.2",
  "updatedAt": "2021-01-24T18:16:49.758Z",
  "networkType": "ethereum",
  "devdoc": {
    "kind": "dev",
    "methods": {
      "supportsInterface(bytes4)": {
        "details": "See {IERC165-supportsInterface}. Time complexity O(1), guaranteed to always use less than 30 000 gas."
      }
    },
    "version": 1
  },
  "userdoc": {
    "kind": "user",
    "methods": {},
    "version": 1
  }
}