{
  "contractName": "InitializeOwnable",
  "abi": [
    {
      "inputs": [],
      "name": "owner",
      "outputs": [
        {
          "internalType": "address",
          "name": "",
          "type": "address"
        }
      ],
      "stateMutability": "view",
      "type": "function"
    },
    {
      "inputs": [
        {
          "internalType": "address",
          "name": "_owner",
          "type": "address"
        }
      ],
      "name": "initialize",
      "outputs": [],
      "stateMutability": "nonpayable",
      "type": "function"
    }
  ],
  "bytecode": "0x608060405234801561001057600080fd5b50336000806101000a81548173ffffffffffffffffffffffffffffffffffffffff021916908373ffffffffffffffffffffffffffffffffffffffff160217905550610294806100606000396000f3fe608060405234801561001057600080fd5b50600436106100365760003560e01c80638da5cb5b1461003b578063c4d66de81461006f575b600080fd5b6100436100b3565b604051808273ffffffffffffffffffffffffffffffffffffffff16815260200191505060405180910390f35b6100b16004803603602081101561008557600080fd5b81019080803573ffffffffffffffffffffffffffffffffffffffff1690602001909291905050506100d7565b005b60008054906101000a900473ffffffffffffffffffffffffffffffffffffffff1681565b600060159054906101000a900460ff16806100f657506100f5610219565b5b8061010e5750600060149054906101000a900460ff16155b610163576040517f08c379a000000000000000000000000000000000000000000000000000000000815260040180806020018281038252602e815260200180610231602e913960400191505060405180910390fd5b60008060159054906101000a900460ff1615905080156101b4576001600060156101000a81548160ff0219169083151502179055506001600060146101000a81548160ff0219169083151502179055505b816000806101000a81548173ffffffffffffffffffffffffffffffffffffffff021916908373ffffffffffffffffffffffffffffffffffffffff16021790555080156102155760008060156101000a81548160ff0219169083151502179055505b5050565b6000803090506000813b905060008114925050509056fe496e697469616c697a61626c653a20636f6e747261637420697320616c726561647920696e697469616c697a6564a2646970667358221220b77957e2ed9431700461fc8836fde5a2b68847bbc7500772b6e220c7e76f9dad64736f6c634300060c0033",
  "immutableReferences": {},
  "source": "// SPDX-License-Identifier: MIT\r\npragma solidity >=0.4.25 <0.7.0;\r\n\r\nimport \"./Ownable.sol\";\r\nimport \"@openzeppelin/contracts/proxy/Initializable.sol\";\r\n\r\n//expand the ownable contract so that the proxy can also set the owner\r\n/*\r\n* @title expand the ownable contract so that also the proxy can set the owner\r\n*/\r\ncontract InitializeOwnable is Ownable, Initializable {\r\n  /*\r\n  * @title initialize the owner\r\n  * Requirements: can only called once\r\n  */\r\n  function initialize(address _owner) public initializer {\r\n    owner = _owner;\r\n  }\r\n}\r\n",
  "sourcePath": "D:\\Studium\\WS_2021\\Blockchain\\votingdapp\\contracts\\utilities\\InitializeOwnable.sol",
  "compiler": {
    "name": "solc",
    "version": "0.6.12+commit.27d51765.Emscripten.clang"
  },
  "schemaVersion": "3.3.2",
  "updatedAt": "2021-01-24T18:14:23.002Z",
  "devdoc": {
    "kind": "dev",
    "methods": {},
    "version": 1
  },
  "userdoc": {
    "kind": "user",
    "methods": {},
    "version": 1
  }
}