{
  "contractName": "VoteToken",
  "abi": [
    {
      "inputs": [],
      "stateMutability": "nonpayable",
      "type": "constructor"
    },
    {
      "anonymous": false,
      "inputs": [
        {
          "indexed": true,
          "internalType": "address",
          "name": "account",
          "type": "address"
        },
        {
          "indexed": true,
          "internalType": "address",
          "name": "operator",
          "type": "address"
        },
        {
          "indexed": false,
          "internalType": "bool",
          "name": "approved",
          "type": "bool"
        }
      ],
      "name": "ApprovalForAll",
      "type": "event"
    },
    {
      "anonymous": false,
      "inputs": [
        {
          "indexed": false,
          "internalType": "bool",
          "name": "_isTokenAvailable",
          "type": "bool"
        }
      ],
      "name": "TokenEvent",
      "type": "event"
    },
    {
      "anonymous": false,
      "inputs": [
        {
          "indexed": true,
          "internalType": "address",
          "name": "operator",
          "type": "address"
        },
        {
          "indexed": true,
          "internalType": "address",
          "name": "from",
          "type": "address"
        },
        {
          "indexed": true,
          "internalType": "address",
          "name": "to",
          "type": "address"
        },
        {
          "indexed": false,
          "internalType": "uint256[]",
          "name": "ids",
          "type": "uint256[]"
        },
        {
          "indexed": false,
          "internalType": "uint256[]",
          "name": "values",
          "type": "uint256[]"
        }
      ],
      "name": "TransferBatch",
      "type": "event"
    },
    {
      "anonymous": false,
      "inputs": [
        {
          "indexed": true,
          "internalType": "address",
          "name": "operator",
          "type": "address"
        },
        {
          "indexed": true,
          "internalType": "address",
          "name": "from",
          "type": "address"
        },
        {
          "indexed": true,
          "internalType": "address",
          "name": "to",
          "type": "address"
        },
        {
          "indexed": false,
          "internalType": "uint256",
          "name": "id",
          "type": "uint256"
        },
        {
          "indexed": false,
          "internalType": "uint256",
          "name": "value",
          "type": "uint256"
        }
      ],
      "name": "TransferSingle",
      "type": "event"
    },
    {
      "anonymous": false,
      "inputs": [
        {
          "indexed": false,
          "internalType": "string",
          "name": "value",
          "type": "string"
        },
        {
          "indexed": true,
          "internalType": "uint256",
          "name": "id",
          "type": "uint256"
        }
      ],
      "name": "URI",
      "type": "event"
    },
    {
      "inputs": [
        {
          "internalType": "address",
          "name": "account",
          "type": "address"
        },
        {
          "internalType": "uint256",
          "name": "id",
          "type": "uint256"
        }
      ],
      "name": "balanceOf",
      "outputs": [
        {
          "internalType": "uint256",
          "name": "",
          "type": "uint256"
        }
      ],
      "stateMutability": "view",
      "type": "function",
      "constant": true
    },
    {
      "inputs": [
        {
          "internalType": "address[]",
          "name": "accounts",
          "type": "address[]"
        },
        {
          "internalType": "uint256[]",
          "name": "ids",
          "type": "uint256[]"
        }
      ],
      "name": "balanceOfBatch",
      "outputs": [
        {
          "internalType": "uint256[]",
          "name": "",
          "type": "uint256[]"
        }
      ],
      "stateMutability": "view",
      "type": "function",
      "constant": true
    },
    {
      "inputs": [
        {
          "internalType": "address",
          "name": "account",
          "type": "address"
        },
        {
          "internalType": "address",
          "name": "operator",
          "type": "address"
        }
      ],
      "name": "isApprovedForAll",
      "outputs": [
        {
          "internalType": "bool",
          "name": "",
          "type": "bool"
        }
      ],
      "stateMutability": "view",
      "type": "function",
      "constant": true
    },
    {
      "inputs": [],
      "name": "owner",
      "outputs": [
        {
          "internalType": "address",
          "name": "",
          "type": "address"
        }
      ],
      "stateMutability": "view",
      "type": "function",
      "constant": true
    },
    {
      "inputs": [
        {
          "internalType": "address",
          "name": "from",
          "type": "address"
        },
        {
          "internalType": "address",
          "name": "to",
          "type": "address"
        },
        {
          "internalType": "uint256[]",
          "name": "ids",
          "type": "uint256[]"
        },
        {
          "internalType": "uint256[]",
          "name": "amounts",
          "type": "uint256[]"
        },
        {
          "internalType": "bytes",
          "name": "data",
          "type": "bytes"
        }
      ],
      "name": "safeBatchTransferFrom",
      "outputs": [],
      "stateMutability": "nonpayable",
      "type": "function"
    },
    {
      "inputs": [
        {
          "internalType": "address",
          "name": "from",
          "type": "address"
        },
        {
          "internalType": "address",
          "name": "to",
          "type": "address"
        },
        {
          "internalType": "uint256",
          "name": "id",
          "type": "uint256"
        },
        {
          "internalType": "uint256",
          "name": "amount",
          "type": "uint256"
        },
        {
          "internalType": "bytes",
          "name": "data",
          "type": "bytes"
        }
      ],
      "name": "safeTransferFrom",
      "outputs": [],
      "stateMutability": "nonpayable",
      "type": "function"
    },
    {
      "inputs": [
        {
          "internalType": "address",
          "name": "operator",
          "type": "address"
        },
        {
          "internalType": "bool",
          "name": "approved",
          "type": "bool"
        }
      ],
      "name": "setApprovalForAll",
      "outputs": [],
      "stateMutability": "nonpayable",
      "type": "function"
    },
    {
      "inputs": [
        {
          "internalType": "bytes4",
          "name": "interfaceId",
          "type": "bytes4"
        }
      ],
      "name": "supportsInterface",
      "outputs": [
        {
          "internalType": "bool",
          "name": "",
          "type": "bool"
        }
      ],
      "stateMutability": "view",
      "type": "function",
      "constant": true
    },
    {
      "inputs": [
        {
          "internalType": "uint256",
          "name": "",
          "type": "uint256"
        }
      ],
      "name": "uri",
      "outputs": [
        {
          "internalType": "string",
          "name": "",
          "type": "string"
        }
      ],
      "stateMutability": "view",
      "type": "function",
      "constant": true
    },
    {
      "inputs": [
        {
          "internalType": "address",
          "name": "_election",
          "type": "address"
        }
      ],
      "name": "addElection",
      "outputs": [],
      "stateMutability": "nonpayable",
      "type": "function"
    },
    {
      "inputs": [
        {
          "internalType": "address",
          "name": "_election",
          "type": "address"
        }
      ],
      "name": "delElection",
      "outputs": [],
      "stateMutability": "nonpayable",
      "type": "function"
    },
    {
      "inputs": [
        {
          "internalType": "address",
          "name": "_election",
          "type": "address"
        }
      ],
      "name": "getVoteToken",
      "outputs": [],
      "stateMutability": "nonpayable",
      "type": "function"
    },
    {
      "inputs": [
        {
          "internalType": "address",
          "name": "_election",
          "type": "address"
        },
        {
          "internalType": "address",
          "name": "_receiver",
          "type": "address"
        }
      ],
      "name": "delegateVoteToken",
      "outputs": [],
      "stateMutability": "nonpayable",
      "type": "function"
    },
    {
      "inputs": [
        {
          "internalType": "address",
          "name": "_election",
          "type": "address"
        }
      ],
      "name": "getID",
      "outputs": [
        {
          "internalType": "uint256",
          "name": "",
          "type": "uint256"
        }
      ],
      "stateMutability": "view",
      "type": "function",
      "constant": true
    }
  ],
  "bytecode": "0x60806040523480156200001157600080fd5b506040518060400160405280601681526020017f46756e6769626c65566f7465546f6b656e2f7b69647d00000000000000000000815250620000606301ffc9a760e01b620000e960201b60201c565b6200007181620001f260201b60201c565b6200008963d9b67a2660e01b620000e960201b60201c565b620000a1630e89341c60e01b620000e960201b60201c565b5033600460006101000a81548173ffffffffffffffffffffffffffffffffffffffff021916908373ffffffffffffffffffffffffffffffffffffffff160217905550620002b4565b63ffffffff60e01b817bffffffffffffffffffffffffffffffffffffffffffffffffffffffff1916141562000186576040517f08c379a000000000000000000000000000000000000000000000000000000000815260040180806020018281038252601c8152602001807f4552433136353a20696e76616c696420696e746572666163652069640000000081525060200191505060405180910390fd5b6001600080837bffffffffffffffffffffffffffffffffffffffffffffffffffffffff19167bffffffffffffffffffffffffffffffffffffffffffffffffffffffff1916815260200190815260200160002060006101000a81548160ff02191690831515021790555050565b80600390805190602001906200020a9291906200020e565b5050565b828054600181600116156101000203166002900490600052602060002090601f016020900481019282601f106200025157805160ff191683800117855562000282565b8280016001018555821562000282579182015b828111156200028157825182559160200191906001019062000264565b5b50905062000291919062000295565b5090565b5b80821115620002b057600081600090555060010162000296565b5090565b61326c80620002c46000396000f3fe608060405234801561001057600080fd5b50600436106100e95760003560e01c80634e1273f41161008c57806399f826a51161006657806399f826a514610782578063a22cb465146107da578063e985e9c51461082a578063f242432a146108a4576100e9565b80634e1273f414610569578063694b98ce1461070a5780638da5cb5b1461074e576100e9565b8063117e26ca116100c8578063117e26ca1461025a5780632eb2c2d61461029e578063384c877e146104c157806344fdea1b14610505576100e9565b8062fdd58e146100ee57806301ffc9a7146101505780630e89341c146101b3575b600080fd5b61013a6004803603604081101561010457600080fd5b81019080803573ffffffffffffffffffffffffffffffffffffffff169060200190929190803590602001909291905050506109b3565b6040518082815260200191505060405180910390f35b61019b6004803603602081101561016657600080fd5b8101908080357bffffffffffffffffffffffffffffffffffffffffffffffffffffffff19169060200190929190505050610a93565b60405180821515815260200191505060405180910390f35b6101df600480360360208110156101c957600080fd5b8101908080359060200190929190505050610afa565b6040518080602001828103825283818151815260200191508051906020019080838360005b8381101561021f578082015181840152602081019050610204565b50505050905090810190601f16801561024c5780820380516001836020036101000a031916815260200191505b509250505060405180910390f35b61029c6004803603602081101561027057600080fd5b81019080803573ffffffffffffffffffffffffffffffffffffffff169060200190929190505050610b9e565b005b6104bf600480360360a08110156102b457600080fd5b81019080803573ffffffffffffffffffffffffffffffffffffffff169060200190929190803573ffffffffffffffffffffffffffffffffffffffff1690602001909291908035906020019064010000000081111561031157600080fd5b82018360208201111561032357600080fd5b8035906020019184602083028401116401000000008311171561034557600080fd5b919080806020026020016040519081016040528093929190818152602001838360200280828437600081840152601f19601f820116905080830192505050505050509192919290803590602001906401000000008111156103a557600080fd5b8201836020820111156103b757600080fd5b803590602001918460208302840111640100000000831117156103d957600080fd5b919080806020026020016040519081016040528093929190818152602001838360200280828437600081840152601f19601f8201169050808301925050505050505091929192908035906020019064010000000081111561043957600080fd5b82018360208201111561044b57600080fd5b8035906020019184600183028401116401000000008311171561046d57600080fd5b91908080601f016020809104026020016040519081016040528093929190818152602001838380828437600081840152601f19601f820116905080830192505050505050509192919290505050610ef6565b005b610503600480360360208110156104d757600080fd5b81019080803573ffffffffffffffffffffffffffffffffffffffff169060200190929190505050611381565b005b6105676004803603604081101561051b57600080fd5b81019080803573ffffffffffffffffffffffffffffffffffffffff169060200190929190803573ffffffffffffffffffffffffffffffffffffffff169060200190929190505050611773565b005b6106b36004803603604081101561057f57600080fd5b810190808035906020019064010000000081111561059c57600080fd5b8201836020820111156105ae57600080fd5b803590602001918460208302840111640100000000831117156105d057600080fd5b919080806020026020016040519081016040528093929190818152602001838360200280828437600081840152601f19601f8201169050808301925050505050505091929192908035906020019064010000000081111561063057600080fd5b82018360208201111561064257600080fd5b8035906020019184602083028401116401000000008311171561066457600080fd5b919080806020026020016040519081016040528093929190818152602001838360200280828437600081840152601f19601f82011690508083019250505050505050919291929050505061197d565b6040518080602001828103825283818151815260200191508051906020019060200280838360005b838110156106f65780820151818401526020810190506106db565b505050509050019250505060405180910390f35b61074c6004803603602081101561072057600080fd5b81019080803573ffffffffffffffffffffffffffffffffffffffff169060200190929190505050611b6f565b005b610756611db3565b604051808273ffffffffffffffffffffffffffffffffffffffff16815260200191505060405180910390f35b6107c46004803603602081101561079857600080fd5b81019080803573ffffffffffffffffffffffffffffffffffffffff169060200190929190505050611dd9565b6040518082815260200191505060405180910390f35b610828600480360360408110156107f057600080fd5b81019080803573ffffffffffffffffffffffffffffffffffffffff169060200190929190803515159060200190929190505050611ee7565b005b61088c6004803603604081101561084057600080fd5b81019080803573ffffffffffffffffffffffffffffffffffffffff169060200190929190803573ffffffffffffffffffffffffffffffffffffffff169060200190929190505050612080565b60405180821515815260200191505060405180910390f35b6109b1600480360360a08110156108ba57600080fd5b81019080803573ffffffffffffffffffffffffffffffffffffffff169060200190929190803573ffffffffffffffffffffffffffffffffffffffff16906020019092919080359060200190929190803590602001909291908035906020019064010000000081111561092b57600080fd5b82018360208201111561093d57600080fd5b8035906020019184600183028401116401000000008311171561095f57600080fd5b91908080601f016020809104026020016040519081016040528093929190818152602001838380828437600081840152601f19601f820116905080830192505050505050509192919290505050612114565b005b60008073ffffffffffffffffffffffffffffffffffffffff168373ffffffffffffffffffffffffffffffffffffffff161415610a3a576040517f08c379a000000000000000000000000000000000000000000000000000000000815260040180806020018281038252602b815260200180613096602b913960400191505060405180910390fd5b6001600083815260200190815260200160002060008473ffffffffffffffffffffffffffffffffffffffff1673ffffffffffffffffffffffffffffffffffffffff16815260200190815260200160002054905092915050565b6000806000837bffffffffffffffffffffffffffffffffffffffffffffffffffffffff19167bffffffffffffffffffffffffffffffffffffffffffffffffffffffff1916815260200190815260200160002060009054906101000a900460ff169050919050565b606060038054600181600116156101000203166002900480601f016020809104026020016040519081016040528092919081815260200182805460018160011615610100020316600290048015610b925780601f10610b6757610100808354040283529160200191610b92565b820191906000526020600020905b815481529060010190602001808311610b7557829003601f168201915b50505050509050919050565b600460009054906101000a900473ffffffffffffffffffffffffffffffffffffffff1673ffffffffffffffffffffffffffffffffffffffff163273ffffffffffffffffffffffffffffffffffffffff1614610c61576040517f08c379a00000000000000000000000000000000000000000000000000000000081526004018080602001828103825260178152602001807f66756e6374696f6e206f6e6c7920666f72206f776e657200000000000000000081525060200191505060405180910390fd5b600660008273ffffffffffffffffffffffffffffffffffffffff1673ffffffffffffffffffffffffffffffffffffffff16815260200190815260200160002060010160009054906101000a900460ff16610d23576040517f08c379a00000000000000000000000000000000000000000000000000000000081526004018080602001828103825260178152602001807f456c656374696f6e20646f6573206e6f7420657869737400000000000000000081525060200191505060405180910390fd5b60005b600660008373ffffffffffffffffffffffffffffffffffffffff1673ffffffffffffffffffffffffffffffffffffffff16815260200190815260200160002060020180549050811015610e8457600660008373ffffffffffffffffffffffffffffffffffffffff1673ffffffffffffffffffffffffffffffffffffffff1681526020019081526020016000206003016000600660008573ffffffffffffffffffffffffffffffffffffffff1673ffffffffffffffffffffffffffffffffffffffff1681526020019081526020016000206002018381548110610e0457fe5b9060005260206000200160009054906101000a900473ffffffffffffffffffffffffffffffffffffffff1673ffffffffffffffffffffffffffffffffffffffff1673ffffffffffffffffffffffffffffffffffffffff16815260200190815260200160002060006101000a81549060ff0219169055806001019050610d26565b50600660008273ffffffffffffffffffffffffffffffffffffffff1673ffffffffffffffffffffffffffffffffffffffff1681526020019081526020016000206000808201600090556001820160006101000a81549060ff0219169055600282016000610ef19190612f27565b505050565b8151835114610f50576040517f08c379a00000000000000000000000000000000000000000000000000000000081526004018080602001828103825260288152602001806131ee6028913960400191505060405180910390fd5b600073ffffffffffffffffffffffffffffffffffffffff168473ffffffffffffffffffffffffffffffffffffffff161415610fd6576040517f08c379a000000000000000000000000000000000000000000000000000000000815260040180806020018281038252602581526020018061311b6025913960400191505060405180910390fd5b610fde612489565b73ffffffffffffffffffffffffffffffffffffffff168573ffffffffffffffffffffffffffffffffffffffff16148061102457506110238561101e612489565b612080565b5b611079576040517f08c379a00000000000000000000000000000000000000000000000000000000081526004018080602001828103825260328152602001806131406032913960400191505060405180910390fd5b6000611083612489565b9050611093818787878787612491565b60005b84518110156112645760008582815181106110ad57fe5b6020026020010151905060008583815181106110c557fe5b6020026020010151905061114c816040518060600160405280602a8152602001613172602a91396001600086815260200190815260200160002060008d73ffffffffffffffffffffffffffffffffffffffff1673ffffffffffffffffffffffffffffffffffffffff168152602001908152602001600020546124999092919063ffffffff16565b6001600084815260200190815260200160002060008b73ffffffffffffffffffffffffffffffffffffffff1673ffffffffffffffffffffffffffffffffffffffff16815260200190815260200160002081905550611203816001600085815260200190815260200160002060008b73ffffffffffffffffffffffffffffffffffffffff1673ffffffffffffffffffffffffffffffffffffffff1681526020019081526020016000205461255990919063ffffffff16565b6001600084815260200190815260200160002060008a73ffffffffffffffffffffffffffffffffffffffff1673ffffffffffffffffffffffffffffffffffffffff168152602001908152602001600020819055505050806001019050611096565b508473ffffffffffffffffffffffffffffffffffffffff168673ffffffffffffffffffffffffffffffffffffffff168273ffffffffffffffffffffffffffffffffffffffff167f4a39dc06d4c0dbc64b70af90fd698a233a518aa5d07e595d983b8c0526c8f7fb8787604051808060200180602001838103835285818151815260200191508051906020019060200280838360005b838110156113145780820151818401526020810190506112f9565b50505050905001838103825284818151815260200191508051906020019060200280838360005b8381101561135657808201518184015260208101905061133b565b5050505090500194505050505060405180910390a46113798187878787876125e1565b505050505050565b80600660008273ffffffffffffffffffffffffffffffffffffffff1673ffffffffffffffffffffffffffffffffffffffff16815260200190815260200160002060010160009054906101000a900460ff1680156114685750600660008273ffffffffffffffffffffffffffffffffffffffff1673ffffffffffffffffffffffffffffffffffffffff16815260200190815260200160002060030160003373ffffffffffffffffffffffffffffffffffffffff1673ffffffffffffffffffffffffffffffffffffffff16815260200190815260200160002060009054906101000a900460ff16155b6114da576040517f08c379a00000000000000000000000000000000000000000000000000000000081526004018080602001828103825260198152602001807f566f7465546f6b656e20616c726561647920636c61696d65640000000000000081525060200191505060405180910390fd5b600660008373ffffffffffffffffffffffffffffffffffffffff1673ffffffffffffffffffffffffffffffffffffffff16815260200190815260200160002060010160009054906101000a900460ff1661159c576040517f08c379a00000000000000000000000000000000000000000000000000000000081526004018080602001828103825260178152602001807f456c656374696f6e20646f6573206e6f7420657869737400000000000000000081525060200191505060405180910390fd5b6001600660008473ffffffffffffffffffffffffffffffffffffffff1673ffffffffffffffffffffffffffffffffffffffff16815260200190815260200160002060030160003373ffffffffffffffffffffffffffffffffffffffff1673ffffffffffffffffffffffffffffffffffffffff16815260200190815260200160002060006101000a81548160ff021916908315150217905550600660008373ffffffffffffffffffffffffffffffffffffffff1673ffffffffffffffffffffffffffffffffffffffff168152602001908152602001600020600201339080600181540180825580915050600190039060005260206000200160009091909190916101000a81548173ffffffffffffffffffffffffffffffffffffffff021916908373ffffffffffffffffffffffffffffffffffffffff16021790555061173533600660008573ffffffffffffffffffffffffffffffffffffffff1673ffffffffffffffffffffffffffffffffffffffff16815260200190815260200160002060000154600160405180602001604052806000815250612970565b7f5fb2d11093f4ba41ad279ac4e8c4657dcbca4d0a6568f6f694c5c71cfa670e39600160405180821515815260200191505060405180910390a15050565b600660008373ffffffffffffffffffffffffffffffffffffffff1673ffffffffffffffffffffffffffffffffffffffff16815260200190815260200160002060010160009054906101000a900460ff16611835576040517f08c379a00000000000000000000000000000000000000000000000000000000081526004018080602001828103825260178152602001807f456c656374696f6e20646f6573206e6f7420657869737400000000000000000081525060200191505060405180910390fd5b6000600660008473ffffffffffffffffffffffffffffffffffffffff1673ffffffffffffffffffffffffffffffffffffffff168152602001908152602001600020600001549050600061188833836109b3565b116118fb576040517f08c379a000000000000000000000000000000000000000000000000000000000815260040180806020018281038252601c8152602001807f53656e64657220686173206e6f7420656e6f75676820546f6b656e730000000081525060200191505060405180910390fd5b61193e33838360016040518060400160405280600881526020017f64656c6567617465000000000000000000000000000000000000000000000000815250612114565b7f5fb2d11093f4ba41ad279ac4e8c4657dcbca4d0a6568f6f694c5c71cfa670e39600160405180821515815260200191505060405180910390a1505050565b606081518351146119d9576040517f08c379a00000000000000000000000000000000000000000000000000000000081526004018080602001828103825260298152602001806131c56029913960400191505060405180910390fd5b6060835167ffffffffffffffff811180156119f357600080fd5b50604051908082528060200260200182016040528015611a225781602001602082028036833780820191505090505b50905060005b8451811015611b6457600073ffffffffffffffffffffffffffffffffffffffff16858281518110611a5557fe5b602002602001015173ffffffffffffffffffffffffffffffffffffffff161415611aca576040517f08c379a00000000000000000000000000000000000000000000000000000000081526004018080602001828103825260318152602001806130c16031913960400191505060405180910390fd5b60016000858381518110611ada57fe5b602002602001015181526020019081526020016000206000868381518110611afe57fe5b602002602001015173ffffffffffffffffffffffffffffffffffffffff1673ffffffffffffffffffffffffffffffffffffffff16815260200190815260200160002054828281518110611b4d57fe5b602002602001018181525050806001019050611a28565b508091505092915050565b600460009054906101000a900473ffffffffffffffffffffffffffffffffffffffff1673ffffffffffffffffffffffffffffffffffffffff163273ffffffffffffffffffffffffffffffffffffffff1614611c32576040517f08c379a00000000000000000000000000000000000000000000000000000000081526004018080602001828103825260178152602001807f66756e6374696f6e206f6e6c7920666f72206f776e657200000000000000000081525060200191505060405180910390fd5b600660008273ffffffffffffffffffffffffffffffffffffffff1673ffffffffffffffffffffffffffffffffffffffff16815260200190815260200160002060010160009054906101000a900460ff1615611cf5576040517f08c379a00000000000000000000000000000000000000000000000000000000081526004018080602001828103825260178152602001807f456c656374696f6e20616c72656164792065786973747300000000000000000081525060200191505060405180910390fd5b611cff6005612b73565b6000611d0b6005612b89565b905080600660008473ffffffffffffffffffffffffffffffffffffffff1673ffffffffffffffffffffffffffffffffffffffff168152602001908152602001600020600001819055506001600660008473ffffffffffffffffffffffffffffffffffffffff1673ffffffffffffffffffffffffffffffffffffffff16815260200190815260200160002060010160006101000a81548160ff0219169083151502179055505050565b600460009054906101000a900473ffffffffffffffffffffffffffffffffffffffff1681565b6000600660008373ffffffffffffffffffffffffffffffffffffffff1673ffffffffffffffffffffffffffffffffffffffff16815260200190815260200160002060010160009054906101000a900460ff16611e9d576040517f08c379a00000000000000000000000000000000000000000000000000000000081526004018080602001828103825260178152602001807f456c656374696f6e20646f6573206e6f7420657869737400000000000000000081525060200191505060405180910390fd5b600660008373ffffffffffffffffffffffffffffffffffffffff1673ffffffffffffffffffffffffffffffffffffffff168152602001908152602001600020600001549050919050565b8173ffffffffffffffffffffffffffffffffffffffff16611f06612489565b73ffffffffffffffffffffffffffffffffffffffff161415611f73576040517f08c379a000000000000000000000000000000000000000000000000000000000815260040180806020018281038252602981526020018061319c6029913960400191505060405180910390fd5b8060026000611f80612489565b73ffffffffffffffffffffffffffffffffffffffff1673ffffffffffffffffffffffffffffffffffffffff16815260200190815260200160002060008473ffffffffffffffffffffffffffffffffffffffff1673ffffffffffffffffffffffffffffffffffffffff16815260200190815260200160002060006101000a81548160ff0219169083151502179055508173ffffffffffffffffffffffffffffffffffffffff1661202d612489565b73ffffffffffffffffffffffffffffffffffffffff167f17307eab39ab6107e8899845ad3d59bd9653f200f220920489ca2b5937696c318360405180821515815260200191505060405180910390a35050565b6000600260008473ffffffffffffffffffffffffffffffffffffffff1673ffffffffffffffffffffffffffffffffffffffff16815260200190815260200160002060008373ffffffffffffffffffffffffffffffffffffffff1673ffffffffffffffffffffffffffffffffffffffff16815260200190815260200160002060009054906101000a900460ff16905092915050565b600073ffffffffffffffffffffffffffffffffffffffff168473ffffffffffffffffffffffffffffffffffffffff16141561219a576040517f08c379a000000000000000000000000000000000000000000000000000000000815260040180806020018281038252602581526020018061311b6025913960400191505060405180910390fd5b6121a2612489565b73ffffffffffffffffffffffffffffffffffffffff168573ffffffffffffffffffffffffffffffffffffffff1614806121e857506121e7856121e2612489565b612080565b5b61223d576040517f08c379a00000000000000000000000000000000000000000000000000000000081526004018080602001828103825260298152602001806130f26029913960400191505060405180910390fd5b6000612247612489565b905061226781878761225888612b97565b61226188612b97565b87612491565b6122e4836040518060600160405280602a8152602001613172602a91396001600088815260200190815260200160002060008a73ffffffffffffffffffffffffffffffffffffffff1673ffffffffffffffffffffffffffffffffffffffff168152602001908152602001600020546124999092919063ffffffff16565b6001600086815260200190815260200160002060008873ffffffffffffffffffffffffffffffffffffffff1673ffffffffffffffffffffffffffffffffffffffff1681526020019081526020016000208190555061239b836001600087815260200190815260200160002060008873ffffffffffffffffffffffffffffffffffffffff1673ffffffffffffffffffffffffffffffffffffffff1681526020019081526020016000205461255990919063ffffffff16565b6001600086815260200190815260200160002060008773ffffffffffffffffffffffffffffffffffffffff1673ffffffffffffffffffffffffffffffffffffffff168152602001908152602001600020819055508473ffffffffffffffffffffffffffffffffffffffff168673ffffffffffffffffffffffffffffffffffffffff168273ffffffffffffffffffffffffffffffffffffffff167fc3d58168c5ae7397731d063d5bbf3d657854427343f4c083240f7aacaa2d0f628787604051808381526020018281526020019250505060405180910390a4612481818787878787612c07565b505050505050565b600033905090565b505050505050565b6000838311158290612546576040517f08c379a00000000000000000000000000000000000000000000000000000000081526004018080602001828103825283818151815260200191508051906020019080838360005b8381101561250b5780820151818401526020810190506124f0565b50505050905090810190601f1680156125385780820380516001836020036101000a031916815260200191505b509250505060405180910390fd5b5060008385039050809150509392505050565b6000808284019050838110156125d7576040517f08c379a000000000000000000000000000000000000000000000000000000000815260040180806020018281038252601b8152602001807f536166654d6174683a206164646974696f6e206f766572666c6f77000000000081525060200191505060405180910390fd5b8091505092915050565b6126008473ffffffffffffffffffffffffffffffffffffffff16612f14565b15612968578373ffffffffffffffffffffffffffffffffffffffff1663bc197c8187878686866040518663ffffffff1660e01b8152600401808673ffffffffffffffffffffffffffffffffffffffff1681526020018573ffffffffffffffffffffffffffffffffffffffff168152602001806020018060200180602001848103845287818151815260200191508051906020019060200280838360005b838110156126b857808201518184015260208101905061269d565b50505050905001848103835286818151815260200191508051906020019060200280838360005b838110156126fa5780820151818401526020810190506126df565b50505050905001848103825285818151815260200191508051906020019080838360005b8381101561273957808201518184015260208101905061271e565b50505050905090810190601f1680156127665780820380516001836020036101000a031916815260200191505b5098505050505050505050602060405180830381600087803b15801561278b57600080fd5b505af19250505080156127bf57506040513d60208110156127ab57600080fd5b810190808051906020019092919050505060015b6128c9576127cb612f83565b806127d65750612878565b806040517f08c379a00000000000000000000000000000000000000000000000000000000081526004018080602001828103825283818151815260200191508051906020019080838360005b8381101561283d578082015181840152602081019050612822565b50505050905090810190601f16801561286a5780820380516001836020036101000a031916815260200191505b509250505060405180910390fd5b6040517f08c379a000000000000000000000000000000000000000000000000000000000815260040180806020018281038252603481526020018061303a6034913960400191505060405180910390fd5b63bc197c8160e01b7bffffffffffffffffffffffffffffffffffffffffffffffffffffffff1916817bffffffffffffffffffffffffffffffffffffffffffffffffffffffff191614612966576040517f08c379a000000000000000000000000000000000000000000000000000000000815260040180806020018281038252602881526020018061306e6028913960400191505060405180910390fd5b505b505050505050565b600073ffffffffffffffffffffffffffffffffffffffff168473ffffffffffffffffffffffffffffffffffffffff1614156129f6576040517f08c379a00000000000000000000000000000000000000000000000000000000081526004018080602001828103825260218152602001806132166021913960400191505060405180910390fd5b6000612a00612489565b9050612a2181600087612a1288612b97565b612a1b88612b97565b87612491565b612a84836001600087815260200190815260200160002060008873ffffffffffffffffffffffffffffffffffffffff1673ffffffffffffffffffffffffffffffffffffffff1681526020019081526020016000205461255990919063ffffffff16565b6001600086815260200190815260200160002060008773ffffffffffffffffffffffffffffffffffffffff1673ffffffffffffffffffffffffffffffffffffffff168152602001908152602001600020819055508473ffffffffffffffffffffffffffffffffffffffff16600073ffffffffffffffffffffffffffffffffffffffff168273ffffffffffffffffffffffffffffffffffffffff167fc3d58168c5ae7397731d063d5bbf3d657854427343f4c083240f7aacaa2d0f628787604051808381526020018281526020019250505060405180910390a4612b6c81600087878787612c07565b5050505050565b6001816000016000828254019250508190555050565b600081600001549050919050565b606080600167ffffffffffffffff81118015612bb257600080fd5b50604051908082528060200260200182016040528015612be15781602001602082028036833780820191505090505b5090508281600081518110612bf257fe5b60200260200101818152505080915050919050565b612c268473ffffffffffffffffffffffffffffffffffffffff16612f14565b15612f0c578373ffffffffffffffffffffffffffffffffffffffff1663f23a6e6187878686866040518663ffffffff1660e01b8152600401808673ffffffffffffffffffffffffffffffffffffffff1681526020018573ffffffffffffffffffffffffffffffffffffffff16815260200184815260200183815260200180602001828103825283818151815260200191508051906020019080838360005b83811015612cdf578082015181840152602081019050612cc4565b50505050905090810190601f168015612d0c5780820380516001836020036101000a031916815260200191505b509650505050505050602060405180830381600087803b158015612d2f57600080fd5b505af1925050508015612d6357506040513d6020811015612d4f57600080fd5b810190808051906020019092919050505060015b612e6d57612d6f612f83565b80612d7a5750612e1c565b806040517f08c379a00000000000000000000000000000000000000000000000000000000081526004018080602001828103825283818151815260200191508051906020019080838360005b83811015612de1578082015181840152602081019050612dc6565b50505050905090810190601f168015612e0e5780820380516001836020036101000a031916815260200191505b509250505060405180910390fd5b6040517f08c379a000000000000000000000000000000000000000000000000000000000815260040180806020018281038252603481526020018061303a6034913960400191505060405180910390fd5b63f23a6e6160e01b7bffffffffffffffffffffffffffffffffffffffffffffffffffffffff1916817bffffffffffffffffffffffffffffffffffffffffffffffffffffffff191614612f0a576040517f08c379a000000000000000000000000000000000000000000000000000000000815260040180806020018281038252602881526020018061306e6028913960400191505060405180910390fd5b505b505050505050565b600080823b905060008111915050919050565b5080546000825590600052602060002090810190612f459190612f48565b50565b5b80821115612f61576000816000905550600101612f49565b5090565b6000601f19601f8301169050919050565b60008160e01c9050919050565b600060443d1015612f9357613036565b60046000803e612fa4600051612f76565b6308c379a08114612fb55750613036565b60405160043d036004823e80513d602482011167ffffffffffffffff82111715612fe157505050613036565b808201805167ffffffffffffffff811115613000575050505050613036565b8060208301013d850181111561301b57505050505050613036565b61302482612f65565b60208401016040528296505050505050505b9056fe455243313135353a207472616e7366657220746f206e6f6e2045524331313535526563656976657220696d706c656d656e746572455243313135353a204552433131353552656365697665722072656a656374656420746f6b656e73455243313135353a2062616c616e636520717565727920666f7220746865207a65726f2061646472657373455243313135353a2062617463682062616c616e636520717565727920666f7220746865207a65726f2061646472657373455243313135353a2063616c6c6572206973206e6f74206f776e6572206e6f7220617070726f766564455243313135353a207472616e7366657220746f20746865207a65726f2061646472657373455243313135353a207472616e736665722063616c6c6572206973206e6f74206f776e6572206e6f7220617070726f766564455243313135353a20696e73756666696369656e742062616c616e636520666f72207472616e73666572455243313135353a2073657474696e6720617070726f76616c2073746174757320666f722073656c66455243313135353a206163636f756e747320616e6420696473206c656e677468206d69736d61746368455243313135353a2069647320616e6420616d6f756e7473206c656e677468206d69736d61746368455243313135353a206d696e7420746f20746865207a65726f2061646472657373a2646970667358221220518200d3a9169c727c12c69f17ac279cc5e3dcb0e47e31cf8199ba8a60c36c6164736f6c634300060c0033",
  "immutableReferences": {},
  "source": "// SPDX-License-Identifier: MIT\r\npragma solidity >=0.4.25 <0.7.0;\r\n\r\nimport \"./utilities/Ownable.sol\";\r\nimport \"@openzeppelin/contracts/token/ERC1155/ERC1155.sol\";\r\nimport \"@openzeppelin/contracts/utils/Counters.sol\";\r\n\r\n/**\r\n * @title Multi-Token for Elections\r\n * @dev Implementation of a multi-token for Election.sol and ElectionFactory.sol.\r\n * Every election contract has unique tokens.\r\n */\r\ncontract VoteToken is ERC1155, Ownable {\r\n    // Counter for identification of election\r\n    using Counters for Counters.Counter;\r\n    Counters.Counter private _electionCounter;\r\n\r\n    // Struct for ElectionContract information\r\n    struct ElectionContract {\r\n        uint256 idElection;\r\n        bool isActive;\r\n        address[] requestors;\r\n        mapping(address => bool) alreadyRequested;\r\n    }\r\n\r\n    // Mapping from address to ElectionContract\r\n    mapping(address => ElectionContract) private _contracts;\r\n\r\n    // Event triggered by getting token\r\n    event TokenEvent(bool _isTokenAvailable);\r\n\r\n    /**\r\n     * @dev Constructor inherits from ERC1155\r\n     * takes URI as identifier for Tokens\r\n     */\r\n    constructor() public ERC1155(\"FungibleVoteToken/{id}\") {}\r\n\r\n    /**\r\n     * @dev checks if person already voted\r\n     */\r\n    modifier onlyNewRequests(address _election) {\r\n        require(\r\n            _contracts[_election].isActive &&\r\n                !_contracts[_election].alreadyRequested[msg.sender],\r\n            \"VoteToken already claimed\"\r\n        );\r\n        _;\r\n    }\r\n\r\n    /**\r\n     * @dev adds an election struct\r\n     * @param _election address of election\r\n     * Requirements:\r\n     * -> only for owner\r\n     * -> `_election` does not exist\r\n     */\r\n    function addElection(address _election) public onlyOwner {\r\n        require(!_contracts[_election].isActive, \"Election already exists\");\r\n        _electionCounter.increment();\r\n        uint256 newId = _electionCounter.current();\r\n        _contracts[_election].idElection = newId;\r\n        _contracts[_election].isActive = true;\r\n    }\r\n\r\n    /**\r\n     * @dev deletes an election struct\r\n     * already existing tokens of this election are not burned\r\n     * @param _election address of election\r\n     * Requirements:\r\n     * -> only for owner\r\n     * -> `_election` exists\r\n     */\r\n    function delElection(address _election) public onlyOwner {\r\n        require(_contracts[_election].isActive, \"Election does not exist\");\r\n        for (uint256 i = 0; i < _contracts[_election].requestors.length; ++i) {\r\n            delete _contracts[_election].alreadyRequested[\r\n                _contracts[_election].requestors[i]\r\n            ];\r\n        }\r\n        delete _contracts[_election];\r\n    }\r\n\r\n    /**\r\n     * @dev mints VoteToken and send to msg.sender\r\n     * Emits a {TransferSingle} and {tokenEvent} event.\r\n     * @param _election address of election\r\n     * Requirements:\r\n     * -> `_election` exists\r\n     * -> request of sender is new\r\n     */\r\n    function getVoteToken(address _election) public onlyNewRequests(_election){\r\n        require(_contracts[_election].isActive, \"Election does not exist\");\r\n        _contracts[_election].alreadyRequested[msg.sender] = true;\r\n        _contracts[_election].requestors.push(msg.sender);\r\n        _mint(msg.sender, _contracts[_election].idElection, 1, \"\");\r\n        emit TokenEvent(true);\r\n    }\r\n\r\n    /**\r\n     * @dev delegates VoteToken to _receiver\r\n     * -> Emits a {TransferSingle} and {tokenEvent} event.\r\n     * @param _election address of election\r\n     * @param _receiver address of receiver\r\n     * Requirements:\r\n     * -> `_election` exists\r\n     * -> sender owns more than one Token\r\n     */\r\n    function delegateVoteToken(address _election, address _receiver) public {\r\n        require(_contracts[_election].isActive, \"Election does not exist\");\r\n        uint256 _electionID = _contracts[_election].idElection;\r\n        require(balanceOf(msg.sender, _electionID) > 0, \"Sender has not enough Tokens\");  \r\n        safeTransferFrom(msg.sender, _receiver, _electionID, 1, \"delegate\");\r\n        emit TokenEvent(true);\r\n    }\r\n\r\n    /**\r\n     * @dev gets id of election\r\n     * @param _election address of election\r\n     * @return id of election\r\n     * Requirements:\r\n     * -> `_election` exists\r\n     */\r\n    function getID(address _election) public view returns (uint256) {\r\n        require(_contracts[_election].isActive, \"Election does not exist\");\r\n        return _contracts[_election].idElection;\r\n    }\r\n}\r\n",
  "sourcePath": "D:\\Studium\\WS_2021\\Blockchain\\votingdapp\\contracts\\VoteToken.sol",
  "compiler": {
    "name": "solc",
    "version": "0.6.12+commit.27d51765.Emscripten.clang"
  },
  "schemaVersion": "3.3.2",
  "updatedAt": "2021-01-24T18:16:49.774Z",
  "networkType": "ethereum",
  "devdoc": {
    "details": "Implementation of a multi-token for Election.sol and ElectionFactory.sol. Every election contract has unique tokens.",
    "kind": "dev",
    "methods": {
      "addElection(address)": {
        "details": "adds an election struct",
        "params": {
          "_election": "address of election Requirements: -> only for owner -> `_election` does not exist"
        }
      },
      "balanceOf(address,uint256)": {
        "details": "See {IERC1155-balanceOf}. Requirements: - `account` cannot be the zero address."
      },
      "balanceOfBatch(address[],uint256[])": {
        "details": "See {IERC1155-balanceOfBatch}. Requirements: - `accounts` and `ids` must have the same length."
      },
      "constructor": {
        "details": "Constructor inherits from ERC1155 takes URI as identifier for Tokens"
      },
      "delElection(address)": {
        "details": "deletes an election struct already existing tokens of this election are not burned",
        "params": {
          "_election": "address of election Requirements: -> only for owner -> `_election` exists"
        }
      },
      "delegateVoteToken(address,address)": {
        "details": "delegates VoteToken to _receiver -> Emits a {TransferSingle} and {tokenEvent} event.",
        "params": {
          "_election": "address of election",
          "_receiver": "address of receiver Requirements: -> `_election` exists -> sender owns more than one Token"
        }
      },
      "getID(address)": {
        "details": "gets id of election",
        "params": {
          "_election": "address of election"
        },
        "returns": {
          "_0": "id of election Requirements: -> `_election` exists"
        }
      },
      "getVoteToken(address)": {
        "details": "mints VoteToken and send to msg.sender Emits a {TransferSingle} and {tokenEvent} event.",
        "params": {
          "_election": "address of election Requirements: -> `_election` exists -> request of sender is new"
        }
      },
      "isApprovedForAll(address,address)": {
        "details": "See {IERC1155-isApprovedForAll}."
      },
      "safeBatchTransferFrom(address,address,uint256[],uint256[],bytes)": {
        "details": "See {IERC1155-safeBatchTransferFrom}."
      },
      "safeTransferFrom(address,address,uint256,uint256,bytes)": {
        "details": "See {IERC1155-safeTransferFrom}."
      },
      "setApprovalForAll(address,bool)": {
        "details": "See {IERC1155-setApprovalForAll}."
      },
      "supportsInterface(bytes4)": {
        "details": "See {IERC165-supportsInterface}. Time complexity O(1), guaranteed to always use less than 30 000 gas."
      },
      "uri(uint256)": {
        "details": "See {IERC1155MetadataURI-uri}. This implementation returns the same URI for *all* token types. It relies on the token type ID substitution mechanism https://eips.ethereum.org/EIPS/eip-1155#metadata[defined in the EIP]. Clients calling this function must replace the `\\{id\\}` substring with the actual token type ID."
      }
    },
    "title": "Multi-Token for Elections",
    "version": 1
  },
  "userdoc": {
    "kind": "user",
    "methods": {},
    "version": 1
  }
}